:03000000020003F8
:0C000300787FE4F6D8FD75811702004AF2
:0C01FC000A083F065B4F666D7D077F6FB1
:1001EB00AE071FEE600A7E027DC7DDFEDEFC80F0EF
:0101FB0022E1
:10018800EF14B40800505490019D75F003A4C58382
:1001980025F0C583730201B50201B90201BD020150
:1001A800C10201C50201CD0201D50201DDD2A48040
:1001B8000ED2A48012D2A48016D2A4801AC2A4D2CD
:1001C800A3D2A28016C2A4D2A3C2A2800EC2A4C285
:1001D800A3D2A28006C2A4C2A3C2A274082DF8E6C4
:0301E800F580227D
:10011A007C007D647F7B7E0012008F8E128F137CA1
:10012A00007D0A7F7B7E0012008F7C007D0A120010
:10013A008F8C148D157E007F7B7C007D0A12008FC8
:10014A008C168D177B017A007F01AD13AC12120158
:10015A00880BBB00010A7F011201EBAF03AD15AC9E
:10016A00141201880BBB00010A7F011201EBAF03D5
:0E017A00AD17AC161201887F011201EB80C692
:10000F0002011AE493A3F8E493A34003F68001F2EC
:10001F0008DFF48029E493A3F85407240CC8C333F2
:10002F00C4540F4420C8834004F456800146F6DFC1
:10003F00E4800B01020408102040809001FCE47E54
:10004F00019360BCA3FF543F30E509541FFEE493B6
:10005F00A360010ECF54C025E060A840B8E493A37D
:10006F00FAE493A3F8E493A3C8C582C8CAC583CAA8
:10007F00F0A3C8C582C8CAC583CADFE9DEE780BE60
:0102080000F5
:10008F00C2D5EC30E709B2D5E4C39DFDE49CFCEE8C
:10009F0030E715B2D5E4C39FFFE49EFE1200C5C33F
:1000AF00E49DFDE49CFC80031200C530D507C3E43A
:0600BF009FFFE49EFE22FB
:1000C500BC000BBE0029EF8DF084FFADF022E4CC1F
:1000D500F875F008EF2FFFEE33FEEC33FCEE9DECE8
:1000E500984005FCEE9DFE0FD5F0E9E4CEFD22ED2E
:1000F500F8F5F0EE8420D21CFEADF075F008EF2F78
:10010500FFED33FD4007985006D5F0F222C398FD68
:050115000FD5F0EA2205
:00000001FF
