:0300000002021FDA
:0C021F00787FE4F6D8FD7581240201FD13
:1001FD001201E9750C037B627A037D067F01120102
:03020D00B680FEBA
:06021000C2A58F80D2A7F9
:080216007F027EEFDEFEDFFC3B
:01021E0022BD
:0A022B00C2A6120210C2A7020216BA
:10019800CFCDCFCECCCE1200427C007D0A120042D9
:0401A800ED2430FF13
:0A01AC00D2A6120210C2A70202162A
:1001D300AE07BE0104ED148006BE0209ED243F44C0
:0601E30080FF12022B2236
:1001E9007F3812022B7F0C12022B7F0612022B7F03
:0401F9000102022BD2
:0A023500AC031201D3AF040201ACC8
:060175008B228A2389247D
:10017B001201D3E4FDAB22AA23A9248D827583003F
:0C018B00120003FF60061201AC0D80E9B9
:010197002245
:0C0142007F0AEA24FFFDE434FFFC7E008D
:08014E008E0D8F0E8C0F8D1039
:100156007F017E00E4FBEBC39510E50F6480F87425
:0E0166008098500AAC0DAD0E1200300B80E8F0
:010174002268
:0401B6008A0A8B0B1B
:1001BA001201D3AA0CEAD39400400D120142AC0AF0
:0801CA00AD0B1201981A80ED43
:0101D200220A
:100097001201D3C3EA64809480400B7F2B1201AC1A
:1000A7008A168B17800E7F2D1201ACC3E49BF517C0
:1000B700E49AF516AA15EAD39400400D120142AC52
:0900C70016AD171201981A80ED24
:0100D000220D
:0400D1008A1A8B1BE1
:1000D5001201D3AA1CEAD3940040297F10120144CF
:1000E500AC1AAD1BCFCDCFCECCCE120042EF540F04
:1000F500FEC3940AEE5004243080022437FF120117
:04010500AC1A80D1DF
:0101090022D3
:04010A008A1F8B209D
:10010E001201D3AA21EAD394004028EA24FFFDE489
:10011E0034FFFC7F027E0012014EAC1FAD20CFCD0E
:10012E00CFCECCCE120042EF54012430FF1201ACE0
:03013E001A80D252
:01014100229B
:10000300BB010CE58229F582E5833AF583E02250B2
:1000130006E92582F8E622BBFE06E92582F8E222FC
:0D002300E58229F582E5833AF583E4932216
:10003000EF8DF0A4A8F0CF8CF0A428CE8DF0A42EE4
:02004000FE229E
:10004200BC000BBE0029EF8DF084FFADF022E4CCA2
:10005200F875F008EF2FFFEE33FEEC33FCEE9DEC6B
:10006200984005FCEE9DFE0FD5F0E9E4CEFD22EDB1
:10007200F8F5F0EE8420D21CFEADF075F008EF2FFB
:10008200FFED33FD4007985006D5F0F222C398FDEC
:050092000FD5F0EA2289
:00000001FF
