:100D82007FE07E071221A9E4900006F0A3F0900014
:100D920006E0FCA3E0FD900026ECF0A3EDF090004D
:100DA20006E0FEA3E07805C333CE33CED8F9241093
:100DB200FFE43E900028F0A3EFF07BEF7A00E4FF1F
:100DC200FE121CF6900007E004F07006900006E0A8
:100DD20004F0C3900007E09450900006E0940040B5
:100DE200AD90002674FFF0A374E0F07B147A007DCE
:100DF200287C007FC87E00121E0B90002674FCF037
:100E0200A3E4F07B0FFA7D28FC7FC8FE121E0B7450
:100E1200FF900026F0A3F07B0F7A007D237C007FF9
:100E22003C7E00121E0B74FF900026F0A3F07B1292
:100E32007A007D1E7C007F507E00121E0B74FF9094
:100E42000026F0A3F07B0F7A007D237C007F647E76
:100E520000121E0B74FF900026F0A3F07B0C7A00A8
:100E62007D377C007FA07E00121E0B74FF9000264F
:100E7200F0A3F07B0F7A007D327C007FAF7E001200
:100E82001E0B74FF900026F0A3F07B0C7A007D37D6
:100E92007C007FBE7E00121E0BE4900006F0A3F0E1
:100EA200900006E0FAA3E0FB7C007D1EFFAE02127A
:100EB200157AEF241EFFE43EA3F0A3EFF07D03AF0B
:100EC20003AE0212158C7E007F0A12157AEF2418E7
:100ED200FFEE3401A3F0FCA3EFF0FD900008E0FA6E
:100EE200A3E0FBFFAE02C007ED24F8FDEC34FFFCEB
:100EF200EB2402FBE43AFAA3E0FFA3E0900026CF42
:100F0200F0A3EFF0A37407F0A374E0F0D007121C73
:100F1200F6900009E02401FF900008E03400FE9002
:100F2200000BE024F6FD90000AE034FFFC9000265E
:100F320074F8F0A3E4F07B04FA121E0B900009E0AF
:100F42002401FF900008E03400FE90000BE024F63C
:100F5200FD90000AE034FFFC90002674FFF0A374B9
:090F6200E0F07B027A00121E0B84
:100F6B00900007E004F07006900006E004F0C390D8
:100F7B000007E09408900006E094005003020EA2D4
:100F8B00900026E4F0A3746EF0E4A3F0A3F07BB41E
:100F9B00FA7D5AFC7F3CFE121CF6900026E4F0A36F
:100FAB00746CF0A37407F0A374E0F07BB27A007D4D
:0A0FBB005C7C007F3E7E00021CF605
:04235900AD07AC061A
:10235D00D3901CF47401939DE4939C5008E4900079
:10236D0063F0A3F022ED25E0FFEC33FE74E02FF5D2
:10237D0082741B3EF583E493FE740193FBAA0674ED
:10238D00982DF582741C3CF583E49375F064A4FDDF
:09239D00ACF0AE02AF0312207E89
:0123A6002214
:101FC300E4900065F0900063F0A3F0900062F0905D
:101FD3000000F0A37478F0A3E4F0A374BEF0A3E4CC
:101FE300F0A3740AF0120FC512244A120D82900056
:101FF30000E0FEA3E0FFA3E0FCA3E0FDA3E0FAA35F
:10200300E0FB121AC9900000E0FCA3E0FDA3E0FA94
:10201300A3E0FBA3E0FFA3E090000BCFF0A3EFF05E
:10202300900065E0FF1219B2900065E004F0E0C390
:1020330094084002E4F0900063E0FEA3E0FF122363
:1020430059900064E004F07006900063E004F0909F
:102053001CF4E493FE740193FFC3900064E09F902B
:102063000063E09E400BE4F0A3F07F2C7E0112237B
:0B207300EB7F787E001223EB021FF1D0
:10240B00C2B0C2B3D2B2EFF580EEF5A0C2B10000FC
:05241B00D2B1D2B32292
:10242000D2B0C2B3D2B2EFF580EEF5A0C2B10000D7
:05243000D2B1D2B3227D
:07245C00E0FCA3E0FD7E009F
:0A24630012240BAE04AF0502242082
:100FC500D2B3D2B1D2B2D2B0D2B5D2B47F0A7E00FA
:100FD5001223EBC2B47F327E001223EBD2B47F32F0
:100FE5007E001223EB7D007C017F017E00122463CD
:100FF5007C077F027E001224637D307C107F037E98
:1010050000122463E4FDFC7F04FE1224637D077C4B
:10101500027F087E00122463E4FDFC7F09FE122492
:1010250063E47F0AFE122463E47F0CFE122463E46A
:101035007F0DFE122463E47F0FFE1224637F0A7E78
:10104500001223EBE4FDFC7F10FE1224637D077F75
:10105500117E00122463E4FD7F12FE122463E47FF7
:1010650013FE1224637FC87E001223EB7D907C164D
:101075007F107E001224637D277C027F117E001283
:1010850024637F327E001223EB7D8C7C007F127EF1
:10109500001224637F327E001223EB7D007C157FD6
:1010A500137E001224637D087C007F297E001224B4
:1010B500637F327E001223EBE4FDFC7F30FE1224B9
:1010C500637407FDFC7F317E001224637C037F324D
:1010D5007E001224637D001C7F357E001224637D13
:1010E500087C007F367E001224637D047F377E00F6
:1010F500122463E4FD7F38FE1224637407FDFC7F30
:10110500397E001224637D027C007F3C7E00122420
:10111500637D047C1D7F3D7E00122463E4FDFC7F1E
:1011250050FE1224637DEF7F517E00122463E4FD9F
:101135007F52FE1224637D3F0C7F537E0012246391
:101145007D007CA77F607E001224630D7C007F619B
:101155007E00122463E41D7F6AFE122463E47F800F
:10116500FE122463E47F81FE122463E47F82FE1273
:101175002463E47F83FE122463E47F84FE122463E8
:10118500E47F85FE1224637D107F907E0012246328
:101195007D007C067F927E001224637D037C007FA8
:1011A500937E001224637D100C7F957E00122463CC
:1011B500E4FD1C7F97FE122463E47F98FE122463EE
:1011C5007D330C7F077E001224637F327E0012235D
:0A11D500EBD2917FE07E070221A912
:10230300900055EEF0A3EFF0A3ECF0A3EDF09000F6
:10231300557F5012245CAE02AF03AD07AC067F516C
:102323007E00122463A3E0FCA3E0FD7F527E001233
:10233300246390005B7F5312245C900055E0FCA360
:10234300E0FD7F207E00122463A3E0FCA3E0FD7F79
:06235300217E000224635C
:0821A90090000CEEF0A3EFF032
:1021B10090001212161200012C0090005B7401F0C5
:1021C100A3743FF07BEF7A00E4FDFCFFFE122303D2
:1021D1007F227E0012240B90000E121612000000C6
:1021E10000900012E0FCA3E0FDA3E0FEA3E0FF905D
:1021F100000EE0F8A3E0F9A3E0FAA3E0FBC3121597
:10220100E1502A90000CE0FEA3E0FF122420A3E09D
:10221100FCA3E0FDA3E0FEA3E02401FFE43EFEE415
:0D2221003DFDE43CFC90000E12160680B45A
:01222E00228D
:1022A800900051ECF0A3EDF0A3EAF0A3EBF090005E
:1022B8004FEEF0A3EFF0C394F0EE9400503CA3E08F
:1022C800FCA3E0FDC39440EC9401502E90004FE035
:1022D800FAA3E0FBFFAE02C007A3E0FFA3E0900073
:1022E8005BCFF0A3EFF0D007122303900053E0FC7C
:0B22F800A3E0FD7F227E001224632281
:1013B500900039EEF0A3EFF0A3ECF0A3EDF0A3EA73
:0413C500F0A3EBF0B6
:1013C900900039E0FEA3E0FFC39BEE9A500CC39056
:1013D900003EE09FFF90003D801290003DE0FEA39B
:1013E900E0FFC390003AE09FFF900039E09EFE9035
:1013F9000043EEF0A3EFF090003BE0FEA3E0FF9086
:10140900003FE0FCA3E0FDD39FEC9E4008ED9FFF69
:10141900EC9EFE801590003FE0FEA3E0FFC3900024
:101429003CE09FFF90003BE09EFE900045EEF0A35C
:10143900EFF090003DE0FEA3E0FFC390003AE09F8B
:10144900900039E09E50067E007F0180047EFF7F78
:10145900FF900047EEF0A3EFF090003FE0FEA3E01D
:10146900FFC390003CE09F90003BE09E50067E0049
:101479007F0180047EFF7FFF900049EEF0A3EFF02B
:10148900900045E0FEA3E0FFC3900044E09FFF9079
:101499000043E09E90004BF0A3EFF0900039E0FE8E
:1014A900A3E0FFA3E0FCA3E0FD900041E0FAA3E084
:1014B900FB1222A890003DE0FEA3E0FF900039E076
:1014C900B5061CA3E0B5071790003FE0FEA3E0FFB7
:1014D90090003BE06E7003A3E06F700302157990F2
:1014E900004CE025E0FF90004BE033FE90004DF00A
:1014F900A3EFF0900045E0FCA3E0FDC3E49DFBE40D
:101509009CFAD3EF9BEA6480F8EE648098402090BF
:10151900004CE09DF090004BE09CF0900047E0FE0D
:10152900A3E0FF90003AE02FF0900039E03EF09000
:101539000043E0FEA3E0FFC390004EE09FEE64800D
:10154900F890004DE064809840030214A490004C88
:10155900E02FF090004BE03EF0900049E0FEA3E060
:10156900FF90003CE02FF090003BE03EF00214A415
:01157900224F
:101CF600900022ECF0A3EDF0900020EEF0A3EFF0C0
:081D0600900024EAF0A3EBF0C9
:101D0E00D3EF9BEE9A4027900020E0FEA3E0FF90D9
:101D1E00002AEEF0A3EFF0900024E0FDA3E0900087
:101D2E0020CDF0A3EDF0900024EEF0A3EFF09000A4
:101D3E0026E0FEA3E0FF900022E0FCA3E0FDD39F8F
:101D4E00EC9E401890002CECF0A3EDF0900022EEEB
:101D5E00F0A3EFF0900026ECF0A3EDF0900022E05F
:101D6E00FCA3E0FDA3E0FAA3E0FBA3E0FFA3E09059
:101D7E00005BCFF0A3EFF0900020E0FEA3E0FF1297
:101D8E0023037F227E0012240B900022E0FFA3E0AB
:101D9E0090002CCFF0A3EFF0900026E0FEA3E0FF22
:101DAE00D390002DE09F90002CE09E504F9000208D
:101DBE00E0FFA3E090002ACFF0A3EFF0900024E024
:101DCE00FEA3E0FFD390002BE09F90002AE09E50F0
:101DDE001B900028E0FEA3E0FF12242090002BE0D1
:101DEE0004F0700690002AE004F080D090002DE000
:0C1DFE0004F0700690002CE004F0809CC3
:011E0A0022B5
:101E0B00900020EEF0A3EFF0A3ECF0A3EDF0A3EA2B
:041E1B00F0A3EBF055
:101E1F00C3E49BFEE49A90002AF0A3CEF090002436
:101E2F00E0FEA3E0FFD390002BE09F90002AE09EFE
:101E3F004003021EFFC3E49FFFE49E900028F0A31F
:101E4F00EFF0900024E0FEA3E0FFD3900029E09F85
:101E5F00900028E09E4003021EEB90002AE0FCA3B6
:101E6F00E0FDFFAE0412157AAA06AB07900028E03A
:101E7F00FCA3E0FDFFAE0412157AEF2BFBEE3AFA4E
:101E8F00900024E0FCA3E0FDFFAE0412157AD3EB23
:101E9F009FEA9E5033900028E0FEA3E0FF900021C0
:101EAF00E02FFF900020E03EFE90002AE0FCA3E030
:101EBF00FD900023E02DFD900022E03CFC900026D9
:101ECF00E0FAA3E0FB1222A8900029E004F06003DF
:101EDF00021E51900028E004F0021E5190002BE0EA
:101EEF0004F06003021E2C90002AE004F0021E2C66
:011EFF0022C0
:10000E0090001BEEF0A3EFF090001FEAF0A3EBF0D0
:08001E0090001DECF0A3EDF0D1
:10002600FFAE04900037ECF0A3EDF0900021E0FC69
:10003600A3E0FDC39FEC9E5004AE04AF05900037CD
:10004600E0FAA3E0FBD3ED9BEC9A400F900021E091
:10005600FDA3E0900037CDF0A3EDF0900025E0FC85
:10006600A3E0FDC39FEC9E5004AE04AF059000379D
:10007600E0FAA3E0FBD3ED9BEC9A400F900025E05D
:10008600FDA3E0900037CDF0A3EDF0900029EEF04F
:10009600A3EFF0900037E0FEA3E0FF900029E0FC1C
:1000A600A3E0FDD39FEC9E4003020431A3E4F0A33A
:1000B60074FFF0E4A3F0A3F090001EE09D90001DF5
:1000C600E09C5015900021E0FEA3E0FFC390002ABB
:1000D600E09F900029E09E404E900029E0FEA3E0BC
:1000E600FFD3900022E09F900021E09E500F9000E9
:1000F6001DE0FCA3E0FDC3EF9DEE9C402A90001D91
:10010600E0FEA3E0FF900029E0FCA3E0FD6F700293
:10011600EC6E6013900021E0FEA3E0FFED6F70022D
:10012600EC6E60030201D1900021E0FEA3E0FF9097
:10013600001DE0FCA3E0FD6F7002EC6E700302018F
:10014600D1C390002AE09DFD900029E09CFC900020
:100156001BE0FEA3E0FFC3900020E09FFF90001F7E
:10016600E09EFE12157A90001DE0FCA3E0FDC39010
:100176000022E09DFD900021E09CFC12158C900071
:100186001CE02FFF90001BE03EFE900035F0A3EF31
:10019600F0D390002CE09F90002BE09E400F900043
:1001A60035E0FFA3E090002BCFF0A3EFF090002DF9
:1001B600E0FEA3E0FF900035E0FCA3E0FDD39FEC5A
:1001C6009E400890002DECF0A3EDF0900029E0FE93
:1001D600A3E0FFD3900022E09F900021E09E500F05
:1001E600900025E0FCA3E0FDC3EF9DEE9C404E9001
:1001F6000029E0FEA3E0FFD3900026E09F900025B3
:10020600E09E500F900021E0FCA3E0FDC3EF9DEEC1
:100216009C402A900021E0FEA3E0FF900029E0FC2C
:10022600A3E0FD6F7002EC6E6013900025E0FEA364
:10023600E0FFED6F7002EC6E60030202C7900025CE
:10024600E0FEA3E0FF900021E0FCA3E0FD6F70025A
:10025600EC6E606DC390002AE09DFD900029E09C45
:10026600FC90001FE0FEA3E0FFC3900024E09FFF88
:10027600900023E09EFE12157A900021E0FCA3E098
:10028600FDC3900026E09DFD900025E09CFC121524
:100296008C900020E02FFF90001FE03EFED39000E0
:1002A6002CE09F90002BE09E4005EEF0A3EFF0C3FC
:1002B60090002EE09F90002DE09E5005EEF0A3EFFB
:1002C600F0900029E0FEA3E0FFD3900026E09F9087
:1002D6000025E09E500F90001DE0FCA3E0FDC3EF5B
:1002E6009DEE9C404E900029E0FEA3E0FFD39000D7
:1002F6001EE09F90001DE09E500F900025E0FCA39D
:10030600E0FDC3EF9DEE9C402A900025E0FEA3E0B1
:10031600FF900029E0FCA3E0FD6F7002EC6E601315
:1003260090001DE0FEA3E0FFED6F7002EC6E60032F
:100336000203DD90001DE0FEA3E0FF900025E0FC37
:10034600A3E0FD6F7002EC6E70030203DDC3900044
:100356002AE09DFD900029E09CFC900023E0FEA38E
:10036600E0FFC390001CE09FFF90001BE09EFE1282
:10037600157A900025E0FCA3E0FDC390001EE09DE9
:10038600FD90001DE09CFC12158C900024E02FFFD0
:10039600900023E03EFE900035F0A3EFF0D39000EE
:1003A6002CE09F90002BE09E400F900035E0FFA3CD
:1003B600E090002BCFF0A3EFF090002DE0FEA3E03D
:1003C600FF900035E0FCA3E0FDD39FEC9E40089033
:1003D600002DECF0A3EDF090002DE0FAA3E0FB90E9
:1003E600002BE0FEA3E0FFD39BEE9A502DC00790B2
:1003F6000029E0FCA3E0FD900029E0FFA3E09000C7
:100406003FCFF0A3EFF0900027E0FFA3E09000417C
:10041600CFF0A3EFF0D0071213B590002AE004F056
:0B0426007006900029E004F00200992D
:0104310022A8
:1018680090001DEEF0A3EFF0A3ECF0A3EDF0A3EAD7
:04187800F0A3EBF0FE
:10187C00900021E0FCA3E0FD900021E0FEA3E0FF3E
:10188C0012157A90002BEEF0A3EFF0900023E0FC01
:10189C00A3E0FDFFAE0412157A90002DEEF0A3EF3D
:1018AC00F0900023E0FEA3E0FFC3E49FFFE49E90D2
:1018BC000029F0A3EFF0900023E0FEA3E0FFD3900B
:1018CC00002AE09F900029E09E40030219B190008D
:1018DC0021E0FEA3E0FFC3E49FFFE49E900027F00D
:1018EC00A3EFF0900021E0FEA3E0FFD3900028E0EE
:1018FC009F900027E09E400302199D900029E0FC78
:10190C00A3E0FDFFAE0412157AA3E0FCA3E0FD12E8
:10191C00157AAA06AB07900027E0FCA3E0FDFFAE0A
:10192C000412157A90002DE0FCA3E0FD12157AEF5D
:10193C002BFBEE3AFA90002BE0FEA3E0FF12157A97
:10194C00D3EB9FEE6480F8EA6480985033900027C4
:10195C00E0FEA3E0FF90001EE02FFF90001DE03E94
:10196C00FE900029E0FCA3E0FD900020E02DFD900E
:10197C00001FE03CFC900025E0FAA3E0FB1222A83B
:10198C00900028E004F07006900027E004F00218A4
:10199C00EF90002AE004F060030218C2900029E0E6
:0519AC0004F00218C266
:0119B1002213
:0E07C400900011EEF0A3EFF0A3ECF0A3EDF027
:1007D200AE02AF037C007D1212157A7D0A12158CCF
:1007E200900019EEF0A3EFF0900013E0FCA3E0FDFF
:1007F200900019E0FAA3E0FB900017E0FFA3E0905D
:100802000026CFF0A3EFF0900011E0FEA3E0FF126C
:100812001E0B900019E0FEA3E0FF900011E0FAA386
:10082200E0FBC39FFFEA9ECF2402CF3400FEC00646
:10083200C007900019E0C313FEA3E013FFC39000AA
:1008420014E09FFD900013E09EFC900019E0C3139A
:10085200FEA3E013FFC3EB9FFBEA9EFA900019E0B0
:10086200FEA3E0FF900013E0F8A3E0C39FFFE89E21
:10087200CF24F8CF34FF900021F0A3EFF0900012C4
:10088200E024FEFE900011E034FF900023F0A3CE9E
:10089200F0900019E0FEA3E0FF900013A3E0C39FD5
:1008A200FFE89ECF2402CF3400900025F0A3EFF0A2
:1008B200900017E0FFA3E0900027CFF0A3EFF0D065
:1008C20007D00612000E900019E0FEA3E0FF900090
:1008D20011E0FAA3E0FB2FFFEA3ECF24FECF34FF64
:1008E200FEC006C007900019E0C313FEA3E013FF89
:1008F200C3900014E09FFD900013E09EFC9000194D
:10090200E0C313FEA3E013FFEB2FFBEA3EFA9000D5
:1009120019E0FEA3E0FF900013E0F8A3E0C39FFFFD
:10092200E89ECF24F8CF34FF900021F0A3EFF0909F
:100932000012E02402FE900011E03400900023F047
:10094200A3CEF0900019E0FEA3E0FF900013A3E015
:10095200C39FFFE89ECF2402CF3400900025F0A36E
:10096200EFF0900017E0FFA3E0900027CFF0A3EF95
:10097200F0D007D00612000E900019E0FEA3E0FFAF
:10098200900011E0FAA3E0FBC39FFFEA9ECF24048C
:10099200CF3400FEC006C007900019E0C313FEA3C7
:1009A200E013FFC3900014E09FFD900013E09EFC53
:1009B200900019E0C313FEA3E013FFC3EB9FFBEA11
:1009C2009EFA900019E0FEA3E0FF900013E0F8A366
:1009D200E0C39FFFE89ECF24FCCF34FF900021F0BC
:1009E200A3EFF0900012E024FCFE900011E034FF2F
:1009F200900023F0A3CEF0900019E0FEA3E0FF9058
:100A02000013A3E0C39FFFE89ECF2402CF340090DF
:100A12000025F0A3EFF0A374F8F0A3741FF0D00741
:100A2200D00612000E900019E0FEA3E0FF90001124
:100A3200E0FAA3E0FB2FFFEA3ECF24FCCF34FFFE17
:100A4200C006C007900019E0C313FEA3E013FFC362
:100A5200900014E09FFD900013E09EFC900019E0CE
:100A6200C313FEA3E013FFEB2FFBEA3EFA9000193B
:100A7200E0FEA3E0FF900013E0F8A3E0C39FFFE8CD
:100A82009ECF24FCCF34FF900021F0A3EFF0900022
:100A920012E02404FE900011E03400900023F0A341
:100AA200CEF0900019E0FEA3E0FF900013A3E0C394
:100AB2009FFFE89ECF2402CF3400900025F0A3EFE1
:100AC200F0A374F8F0A3741FF0D007D00602000E52
:0E043200900011EEF0A3EFF0A3ECF0A3EDF0BC
:10044000AE02AF037C007D1212157A7D0A12158C64
:10045000900018EEF0A3EFF0E4A3F0900017E0FF97
:1004600064016004EFB4030690001A7401F0900078
:1004700018E0C313FEA3E013FFC3900012E09FFF38
:10048000900011E09EFE900014E024FEFD90001309
:10049000E034FFFC90001AE0FB3395E0FAED2BFD11
:1004A000EC3AFCE4900026F0A3F07B03FA121E0B5A
:1004B000900018E0C313FEA3E013FFC3900012E006
:1004C0009FFF900011E09ECF2401CF3400FE9000EA
:1004D00014E024FDFD900013E034FFFC90001AE0CE
:1004E000FB3395E0FAED2BFDEC3AFC74FF9000260F
:1004F000F0A3F07B017A00121E0B900018E0C313EA
:10050000FEA3E013FF900012E02FFF900011E03EE9
:10051000FE900014E024FEFD900013E034FFFC90F8
:10052000001AE0FB3395E0FAED2BFDEC3AFCE49089
:100530000026F0A3F07B03FA121E0B900018E0C314
:1005400013FEA3E013FF900012E02FFF900011E0D4
:100550003ECF2401CF3400FE900014E024FDFD9036
:100560000013E034FFFC90001AE0FB3395E0FAED55
:100570002BFDEC3AFC74FF900026F0A3F07B017A8F
:1005800000121E0B900011E0FEA3E0FF900014E0AB
:100590002402FD900013E03400FC90002674F8F073
:1005A000A3741FF07B027A00121E0B900011E0FA78
:1005B000A3E0FB24FDFFEA34FFFEC006C007900065
:1005C00014E02405FD900013E03400FCE0FEA3E0FD
:1005D0002407FFE43E90003FF0A3EFF0E4A3F0A374
:1005E000F0D007D0061213B5900011E0FAA3E0FB9B
:1005F000FFAE02C006C007900014E02407FD900083
:1006000013E03400FCEB2403FBE43AFAE0FEA3E041
:100610002405FFE43E90003FF0A3EFF0E4A3F0A335
:10062000F0D007D0061213B5900018E0FAA3E0FB53
:10063000C3900012E09BFF900011E09ACF24FECF00
:1006400034FFFEC006C007900014E02402FD9000B5
:1006500013E03400FCEAC313FEEB13FFC390001257
:10066000E09FFF900011E09ECF24FEFBEF34FFFAE5
:10067000900014E02403FE900013E0340090003F4B
:10068000F0A3CEF0E4A3F0A3F0D007D0061213B588
:10069000900018E0FAA3E0FBC3900012E09BFF90EB
:1006A0000011E09ACF24FECF34FFFEC006C00790B1
:1006B0000014E02405FD900013E03400FCEAC313AD
:1006C000FEEB13FFC3900012E09FFF900011E09E2D
:1006D000CF24FEFBEF34FFFA900014E02405FE90D7
:1006E0000013E0340090003FF0A3CEF0E4A3F0A3A9
:1006F000F0D007D0061213B5900018E0C313FEA384
:10070000E013FF900012E02FFF900011E03ECF2495
:1007100002CF3400FEC006C007900014E02403FDA1
:10072000900013E03400FC900018E0FEA3E0FF907E
:100730000011E0FAA3E02FFFEA3ECF2402FBE43FE2
:10074000FAA3E0FEA3E02402FFE43E90003FF0A302
:10075000EFF0E4A3F0A3F0D007D0061213B5900099
:1007600018E0C313FEA3E013FF900012E02FFF90E8
:100770000011E03ECF2402CF3400FEC006C0079037
:100780000014E02405FD900013E03400FC900018F4
:10079000E0FEA3E0FF900011E0FAA3E02FFFEA3EA5
:1007A000CF2402FBE43FFAA3E0FEA3E02405FFE42C
:1007B0003E90003FF0A3EFF0E4A3F0A3F0D007D009
:0407C000060213B565
:0E1F0000900011EEF0A3EFF0A3ECF0A3EDF0D3
:101F0E007C007D16AF03AE0212157A7D0A12158C77
:101F1E00900019EEF0A3EFF0AE02AF037C007D1C33
:101F2E0012157A7D0A12158CA3EEF0A3EFF0900035
:101F3E0013E0FCA3E0FD900019E0FAA3E0FBA3E0A0
:101F4E00FFA3E0900023CFF0A3EFF0900017E0FF87
:101F5E00A3E0900025CFF0A3EFF0900011E0FEA3D8
:101F6E00E0FF12186890001BE0FEA3E07802CEC3DB
:101F7E0013CE13D8F9FF900014E02FFD900013E05C
:101F8E003EFC90001AE024FCFB900019E034FFFAAE
:101F9E0090001CE024FAFE90001BE034FF9000231A
:101FAE00F0A3CEF074FFA3F0A3F0900011E0FEA317
:051FBE00E0FF021868BD
:1011DF00900011EEF0A3EFF0A3ECF0A3EDF0A3EA73
:0411EF00F0A3EBF08E
:1011F300E4FBA3E0B408005039901203F8282873E5
:1012030002121B02121F02122302122702122B02C6
:10121300122F02123302121F7BF880167BF4801206
:101223007BFA800E7BF6800A7BFC80067BF28002D1
:101233007BF8900015E0FEA3E0FF7C007D12121501
:101243007A7D0A12158C900012E02FFF900011E0B6
:101253003E90001AF0A3EFF0900015E0FEA3E0FF2C
:101263007C007D0F12157A7D0A12158CC390001431
:10127300E09FFF900013E09EFEAD03ED3395E0FC8D
:10128300EF2DFFEE3C90001CF0A3EFF0900015E073
:10129300FEA3E07802C333CE33CED8F9FF7C007DC2
:1012A3000A12158CAA06AB07C00390001AE0FEA32E
:1012B300E0FFA3E0FCA3E0FD900018E0FBA3E090B7
:1012C3000026CBF0A3EBF0D003121E0B900015E029
:1012D300FEA3E07802C333CE33CED8F9FF7C007D82
:1012E3000A12158CAA06AB07C00390001BE0240367
:1012F300FF90001AE03400FE90001DE024FCFD90F6
:10130300001CE034FFFC900018E0FBA3E0900026F3
:10131300CBF0A3EBF0D003121E0B900015E0FEA35D
:10132300E07802C333CE33CED8F9FF7C007D0A12B6
:10133300158CAA06AB07C00390001BE02406FF90A0
:10134300001AE03400FE90001DE024F8FD90001C1C
:10135300E034FFFC900018E0FBA3E0900026CBF004
:10136300A3EBF0D003121E0B900015E0FEA3E0FFE9
:101373007C007D0312157A7D0A12158CAA06AB0731
:10138300C00390001BE02408FF90001AE03400FE25
:1013930090001DE024F4FD90001CE034FFFC90005D
:1013A30018E0FBA3E0900026CBF0A3EBF0D0030200
:0213B3001E0B0F
:100AD200900011EEF0A3EFF0A3ECF0A3EDF0A3EA87
:040AE200F0A3EBF0A2
:100AE600E490001AF0A3F0900015E0FAA3E0FB7C76
:100AF600007D05FFAE0212157A7D0A12158C900054
:100B06001CEEF0A3EFF07C007D0FAF03AE021215D2
:100B16007A7D0A12158CA3EEF0A3EFF0900017E091
:100B2600B408005070900B32F8282873020B4A0262
:100B36000B4C020B58020B64020B4A020B79020B98
:100B460085020B91802490001A74FCF0A37402F0C5
:100B5600804390001A74FAF0A37404F08037900072
:100B66001A74FEF0A37406F0802BE490001AF0A32A
:100B7600F0802290001A7402F0A374FCF0801690A4
:100B8600001A7404F0A374FAF0800A90001A74062E
:100B9600F0A374FEF0900015E0FEA3E0FF7C007D5C
:100BA6000A12157A12158CC3900012E09FFF90006E
:100BB60011E09EFE90001AE0FB3395E0FAEF2BFF62
:100BC600EE3AFEC006C007900015E0FEA3E0FF7CEB
:100BD600007D0512157A7D0A12158CC3900012E06D
:100BE6009FFF900011E09ECF2BFBEF3AFA90001387
:100BF600E0FEA3E0FF2405FDE43EFCEF2405FFE450
:100C06003EFE90001EE0F8A3E02FFFE83E9000268F
:100C1600F0A3EFF0900018E0FFA3E0900028CFF0DB
:100C2600A3EFF0D007D006121CF6900015E0FEA345
:100C3600E0FF7C007D0712157A7D0A12158CC390A1
:100C46000012E09FFF900011E09EFE90001AE0FD6A
:100C56003395E0FCEF2DFFEE3CFE900014E02405FA
:100C6600FD900013E03400FC90001FE02DFD900085
:100C76001EE03CFC900018E0FBA3E0900026CBF0C1
:100C8600A3EBF07B037A00121E0B900015E0FEA387
:100C9600E0FF7C007D0512157A7D0A12158C900006
:100CA60012E02FFF900011E03EFE90001BE0FB33A8
:100CB60095E0FAEF2BFFEE3AFEC006C0079000154E
:100CC600E0FEA3E0FF7C007D0A12157A12158C90D7
:100CD6000012E02FFF900011E03ECF2BFBEF3AFA17
:100CE600900013E0FEA3E0FF2405FDE43EFCEF24A4
:100CF60005FFE43EFE90001EE0F8A3E02FFFE83E6D
:100D0600900026F0A3EFF0900018E0FFA3E090001B
:100D160028CFF0A3EFF0D007D006121CF6900015EE
:100D2600E0FEA3E0FF7C007D0712157A7D0A12150E
:100D36008C900012E02FFF900011E03EFE90001B09
:100D4600E0FD3395E0FCEF2DFFEE3CFE900014E055
:100D56002405FD900013E03400FC90001FE02DFDFB
:100D660090001EE03CFC900018E0FBA3E0900026FB
:0C0D7600CBF0A3EBF07B037A00021E0B15
:10171100900011EEF0A3EFF0A3ECF0A3EDF0A3EA3B
:04172100F0A3EBF056
:10172500E4FB90001AF0900017E0B40800506390B5
:10173500173BF828287302175302175502175F0243
:10174500176902175302177B02178502178F801E30
:101755007B0290001A74FCF080387B0490001A74A8
:10176500FAF0802E7B0690001A74FEF08024E4FBCC
:1017750090001AF0801C7BFC90001A7402F0801215
:101785007BFA90001A7404F080087BFE90001A74AE
:1017950006F0900015E0FEA3E0FF7C007D0E12151B
:1017A5007A7D0A12158CC3900012E09FFF900011FC
:1017B500E09EFEAD03ED3395E0FCEF2DFBEE3CFA2C
:1017C500900015E0FEA3E0FF7C007D1212157A7DE6
:1017D5000A12158C900014E02FFD900013E03EFCDA
:1017E500900018E0FFA3E0900026CFF0A3EFF0AF44
:1017F50003AE027B057A00121E0B900015E0FEA3D6
:10180500E0FF7C007D0E12157A7D0A12158C900082
:1018150012E02FFF900011E03EFE90001AE0FD332C
:1018250095E0FCEF2DFBEE3CFA900015E0FEA3E001
:10183500FF7C007D1212157A7D0A12158C9000141A
:10184500E02FFD900013E03EFC900018E0FFA3E0C0
:10185500900026CFF0A3EFF0AF03AE027B057A0030
:03186500021E0B55
:0B19B200900006EFF0A3ECF0A3EDF0B6
:1019BD0090000BE0FEA3E0FF7C007D1912157A7DEF
:1019CD000A12158CC3EB9FFFEA9EA3F0A3EFF0AEB6
:1019DD0002AF03A3EEF0FCA3EFF0FD900007E0FED5
:1019ED00A3E0FF90000BE0FAA3E0FB900006E0906F
:1019FD000017F0A374FCF0A3E4F01211DF900007C0
:101A0D00E0FEA3E0FF90000FE0FCA3E0FD90000BD3
:101A1D00E0FAA3E0FB900006E0900017F0A374FC41
:101A2D00F0A3E4F0121711900007E0FEA3E0FF9081
:101A3D00000FE0FCA3E0FD90000BE0FAA3E0FB90AB
:101A4D00001774FCF0A3E4F0121F00900007E0FEF5
:101A5D00A3E0FF90000FE0FCA3E0FD90000BE0FA87
:101A6D00A3E0FB900006E0900017F0A374FCF0A338
:101A7D00E4F0120AD2900007E0FEA3E0FF90000D03
:101A8D00E0FCA3E0FD90000BE0FAA3E0FB90001753
:101A9D0074FCF0A3E4F01207C4900007E0FEA3E08D
:101AAD00FF90000DE0FCA3E0FD90000BE0FAA3E039
:0C1ABD00FB900006E0900017F0020432DD
:0E1AC900900006EEF0A3EFF0A3ECF0A3EDF01A
:101AD7007C007D23AF03AE0212157A7D0A12158CA6
:101AE700C3900007E09FFF900006E09E90000AF079
:101AF700A3EFF07C007D32AF03AE0212157A7D0AA8
:101B070012158CC3900009E09FFF900008E09E909B
:101B1700000CF0A3EFF07C007D23AF03AE0212159B
:101B27007A7D0A12158C900007E02FFF900006E0DF
:101B37003E90000EF0A3EFF0AE02AF037C007D23D2
:101B470012157A7D0A12158C900009E02FFF90007C
:101B570008E03E900010F0A3EFF0D390000BE09464
:101B6700F090000AE094004004E4F0A3F0D3900062
:101B77000DE0944090000CE094014004E4F0A3F0E1
:101B8700C390000FE094F090000EE094004006E44C
:101B9700F0A374EFF0C3900011E09440900010E0C0
:101BA700940140077401F0A3743FF090000CE0FC2F
:101BB700A3E0FDA3E0FAA3E0FBA3E0FFA3E090000E
:101BC70026CFF0A3EFF0A37407F0A374E0F0900022
:091BD7000AE0FEA3E0FF021CF687
:101BE0000310037003100293031003700310024BE1
:101BF000029303100293024B020B01B8020B024B3B
:101C000002930293024B020B01B8020B024B0293A8
:101C1000031003100293024B0293024B020B01EEDE
:101C2000020B024B029303100293024B020B024B76
:101C300002930293024B020B01B801B8020B024B54
:101C40000293024B020B01B8018801B8020B024B50
:101C5000029303100293024B020B020B024B0293FE
:101C60000310037003100293031003700310024B60
:101C7000029303100293024B020B01B8020B024BBA
:101C800002930293024B020B01B8020B024B029328
:101C90000310000000000000010101010101010129
:101CA0000101010101010101010101010101010124
:101CB0000101010101010101010101010101010114
:101CC0000101010101010101010101010101010104
:101CD00001010101010101010101010101010101F4
:101CE00001010101010101010101010101010101E4
:061CF00002020202005C8A
:0E246D00420060000042005D000041005F0080
:10244A005389F0438901E4F58CF58AD2A9D2AFC247
:02245A009022CE
:03000B0002222F9F
:10222F00C0E0C083C082C0D075D000C000C002C063
:10223F0003C004C005C006C00790005DE0FEA3E028
:10224F00FBAA06E4C39BFFE49EFE74019400FDE429
:10225F009400FC78081215F28F8C90005DE0FEA3BD
:10226F00E0FBAA06E4C39BFFE49E8F8A90005FE029
:10227F0070047F0180027F0090005FEFF0E024FF89
:10228F009290D007D006D005D004D003D002D00052
:09229F00D0D0D082D083D0E0320F
:10207E00900008ECF0A3EDF0900006EEF0A3EFF068
:10208E004E700BC290A3E0FEA3E0FF0223EB900084
:10209E0006E0FEA3E0FBAA06E4F9F87F207EA17D10
:1020AE0007FC1223A790000CEEF0A3EFF0E49000D3
:1020BE000AF0A3F0900008E0FEA3E0FF7C037DE8A9
:1020CE0012157AAA06AB0790000DE025E0FD9000F0
:1020DE000CE033FC12158CC390000BE09F90000AAD
:1020EE00E09E502AD29090000CE0FEA3E0FF122456
:1020FE0035C29090000CE0FEA3E0FF122435900054
:0E210E000BE004F070AE90000AE004F080A632
:01211C0022A0
:10243500EF1FAC0670011E4C600A00000000000092
:05244500000080EC2204
:1023EB00E4FDFCC3ED9FEC9E5015E4FBFA0BBB0028
:0F23FB00010AEB64784A70F50DBD00010C80E417
:01240A0022AF
:0300000002211DBD
:0C211D00787FE4F6D8FD7581070221648C
:10157A00EF8DF0A4A8F0CF8CF0A428CE8DF0A42E85
:02158A00FE223F
:10158C00BC000BBE0029EF8DF084FFADF022E4CC43
:10159C00F875F008EF2FFFEE33FEEC33FCEE9DEC0C
:1015AC00984005FCEE9DFE0FD5F0E9E4CEFD22ED52
:1015BC00F8F5F0EE8420D21CFEADF075F008EF2F9C
:1015CC00FFED33FD4007985006D5F0F222C398FD8D
:0515DC000FD5F0EA222A
:1023A700C2D5E830E70FB2D5E4C39BFBE49AFAE461
:1023B70099F9E498F8EC30E717B2D51223DD121635
:1023C7007FE4C39BFBE49AFAE499F9E498F8800365
:1023D70012167F30D50DE4C39FFFE49EFEE49DFDFA
:0423E700E49CFC2254
:1015E100EB9FF5F0EA9E42F0E99D42F0E89C45F060
:0115F10022D7
:1015F200E86010ECA2E713FCED13FDEE13FEEF130F
:04160200FFD8F022FB
:0C160600ECF0A3EDF0A3EEF0A3EFF02257
:10161200A8828583F0D083D082121629121629124D
:101622001629121629E473E493A3C583C5F0C58372
:10163200C8C582C8F0A3C583C5F0C583C8C582C822
:011642002285
:10212900021FC3E493A3F8E493A34003F68001F2EA
:1021390008DFF48029E493A3F85407240CC8C333B7
:10214900C4540F4420C8834004F456800146F6DF86
:10215900E4800B010204081020408090246DE47E85
:10216900019360BCA3FF543F30E509541FFEE4937B
:10217900A360010ECF54C025E060A840B8E493A342
:10218900FAE493A3F8E493A3C8C582C8CAC583CA6D
:10219900F0A3C8C582C8CAC583CADFE9DEE780BE25
:01247B000060
:1016430075F008758200EF2FFFEE33FECD33CDCC5E
:1016530033CCC58233C5829BED9AEC99E5829840E1
:101663000CF582EE9BFEED9AFDEC99FC0FD5F0D6BE
:10167300E4CEFBE4CDFAE4CCF9A88222B800C1B9E8
:101683000059BA002DEC8BF084CFCECDFCE5F0CB26
:10169300F97818EF2FFFEE33FEED33FDEC33FCEB5F
:1016A30033FB10D703994004EB99FB0FD8E5E4F91A
:1016B300FA227818EF2FFFEE33FEED33FDEC33FC07
:1016C300C933C910D7059BE99A4007EC9BFCE99AFB
:1016D300F90FD8E0E4C9FAE4CCFB2275F010EF2F40
:1016E300FFEE33FEED33FDCC33CCC833C810D70740
:1016F3009BEC9AE899400AED9BFDEC9AFCE899F87B
:0E1703000FD5F0DAE4CDFBE4CCFAE4C8F9220D
:00000001FF
