:030000000208E013
:0C08E000787FE4F6D8FD75810D02092731
:10096C000370010370010370010310010293010372
:10097C001001037002037001037001037001031076
:10098C0001029301031001024B0202930102930135
:10099C00024B01020B0101B801020B01024B0202D6
:1009AC009301024B01020B0101B801018804000004
:0109BC000436
:070B060002080000010A00D3
:03000B00020AD70F
:100AD700C0E0E50A600AE508F58CE509F58AB2A0E9
:030AE700D0E0322A
:100A4900EF4E7005F50AD2A022AB07AA06E4F9F821
:100A59007F207EA17D07FC120A05C3E49FF509E406
:0C0A69009EF508F58CE509F58A750A0178
:010A7500225E
:100A9E007E007C017D2C1208008E0B8F0CE50C1550
:100AAE000CAE0B7002150B4E60097F017E00120A10
:030ABE00C280EA09
:010AC1002212
:1009BD00E4F50DE50D75F003A4246CF582E434091E
:1009CD00F583E493FE740193FF120A49E50D75F06A
:1009DD0003A4246EF582E43409F583E493FF120A2F
:1009ED009EE4FFFE120A497F1E7E00120AC2050D0B
:0709FD00E50DC3941B40BC93
:010A040022CF
:0A0AFC001209BD7F207E03020AC22A
:100AEA00D2A0758901758CFC758A18D2A9D28CD2CC
:020AFA00AF2229
:100AC200EF1FAC0670011E4C600A7D027CEFDCFE5B
:040AD200DDFC80ECDB
:010AD60022FD
:100A7600E4F5807F96FE120AC27580017F967E009D
:100A8600120AC2120000120AEAE4F5807F207E03F1
:080A9600120AC212000080F1F7
:1008EC00020A76E493A3F8E493A34003F68001F2A2
:1008FC0008DFF48029E493A3F85407240CC8C3330D
:10090C00C4540F4420C8834004F456800146F6DFDB
:10091C00E4800B0102040810204080900B06E47E5A
:10092C00019360BCA3FF543F30E509541FFEE493D0
:10093C00A360010ECF54C025E060A840B8E493A397
:10094C00FAE493A3F8E493A3C8C582C8CAC583CAC2
:10095C00F0A3C8C582C8CAC583CADFE9DEE780BE7A
:010B0D0000E7
:10080000EF8DF0A4A8F0CF8CF0A428CE8DF0A42E0C
:02081000FE22C6
:100A0500C2D5E830E70FB2D5E4C39BFBE49AFAE41C
:100A150099F9E498F8EC30E717B2D5120A3B1208B9
:100A25004EE4C39BFBE49AFAE499F9E498F8800351
:100A350012084E30D50DE4C39FFFE49EFEE49DFDF4
:040A4500E49CFC220F
:1008120075F008758200EF2FFFEE33FECD33CDCC9D
:1008220033CCC58233C5829BED9AEC99E582984020
:100832000CF582EE9BFEED9AFDEC99FC0FD5F0D6FD
:10084200E4CEFBE4CDFAE4CCF9A88222B800C1B927
:100852000059BA002DEC8BF084CFCECDFCE5F0CB65
:10086200F97818EF2FFFEE33FEED33FDEC33FCEB9E
:1008720033FB10D703994004EB99FB0FD8E5E4F959
:10088200FA227818EF2FFFEE33FEED33FDEC33FC46
:10089200C933C910D7059BE99A4007EC9BFCE99A3A
:1008A200F90FD8E0E4C9FAE4CCFB2275F010EF2F7F
:1008B200FFEE33FEED33FDCC33CCC833C810D7077F
:1008C2009BEC9AE899400AED9BFDEC9AFCE899F8BA
:0E08D2000FD5F0DAE4CDFBE4CCFAE4C8F9224D
:00000001FF
