:0300000002008B70
:0C008B00787FE4F6D8FD7581090200269C
:10000300EF1FAC0670011E4C600A7D027CEFDCFE24
:04001300DDFC80ECA4
:0100170022C6
:10007B003F065B4F666D7D077F6F777C395E7971CD
:10002600C29FD29ED29CD28E758920758DF3758B18
:10003600F3D2AFD2ACE508B401FBC2ACE4F5088557
:0B00460009993099FDC299D2AC80EA04
:0300230002005187
:10005100C0E0C083C082C0D075D000C007C29885FF
:100061009909AF99EF90007B93F4F580750801D061
:0A00710007D0D0D082D083D0E03257
:00000001FF
