:03000000020800F3
:0C080000787FE4F6D8FD758108020847F7
:1008FC003F065B4F666D7D077F6F777C395E797144
:03090C00010800DF
:0300030002088C64
:10088C00C0E0C083C082C0D00508E508D3940F40F7
:10089C0003750800E5089008FC93F4F580D0D0D0DF
:0608AC0082D083D0E0328F
:030013000208B22E
:1008B200C0E0C083C082E508700575080F8002158C
:1008C20008E5089008FC93F4F580D082D083D0E04C
:0108D20032F3
:1008E800D288D28AD2A8D2AAD2AF9008FCE493F4D4
:0408F800F58080FE09
:1008D300EF1FAC0670011E4C600A7D027CEFDCFE4C
:0408E300DDFC80ECCC
:0108E70022EE
:10080C000208E8E493A3F8E493A34003F68001F212
:10081C0008DFF48029E493A3F85407240CC8C333ED
:10082C00C4540F4420C8834004F456800146F6DFBC
:10083C00E4800B010204081020408090090CE47E37
:10084C00019360BCA3FF543F30E509541FFEE493B1
:10085C00A360010ECF54C025E060A840B8E493A378
:10086C00FAE493A3F8E493A3C8C582C8CAC583CAA3
:10087C00F0A3C8C582C8CAC583CADFE9DEE780BE5B
:01090F0000E7
:00000001FF
