:0300000002028E6B
:0C028E00787FE4F6D8FD75812602009709
:06027F00C2A58F80D2A78A
:080285007F027EEFDEFEDFFCCC
:01028D00224E
:0A029A00C2A612027FC2A70202856D
:10021100CFCDCFCECCCE1200427C007D0A1200425F
:04022100ED2430FF99
:0A022500D2A612027FC2A7020285D2
:10022F00AE07BE0104ED148006BE0209ED243F4463
:06023F0080FF12029A226A
:10025A007F3812029A7F0C12029A7F0612029A7F44
:04026A000102029AF1
:0B0245007F1412026EAD82AB097F0136
:0A025000AC0312022FAF04020225D6
:0601CD008B248A2589261F
:1001D30012022FE4FDAB24AA25A9268D8275830084
:0C01E300120003FF60061202250D80E9E7
:0101EF0022ED
:0C019A007F0AEA24FFFDE434FFFC7E0035
:0801A6008E0F8F108C118D12D9
:1001AE007F017E00E4FBEBC39512E5116480F874C9
:0E01BE008098500AAC0FAD101200300B80E894
:0101CC002210
:0401F0007A007F0111
:0401F4008A0C8B0DD9
:1001F80012022FAA0EEAD39400400D12019AAC0CF9
:08020800AD0D1202111A80ED88
:0102100022CB
:1000EF0012022FC3EA64809480400B7F2B120225EB
:1000FF008A188B19800E7F2D120225C3E49BF519E8
:10010F00E49AF518AA17EAD39400400D12019AAC9D
:09011F0018AD191202111A80ED4D
:0101280022B4
:040129008A1C8B1D84
:10012D0012022FAA1EEAD3940040297F1012019CBF
:10013D00AC1CAD1DCFCDCFCECCCE120042EF540FA7
:10014D00FEC3940AEE5004243080022437FF1202BD
:04015D00251A80D10E
:01016100227B
:040162008A218B2241
:1001660012022FAA23EAD394004028EA24FFFDE4D2
:1001760034FFFC7F027E001201A6AC21AD22CFCD5A
:10018600CFCECCCE120042EF54012430FF1202250E
:030196001A80D2FA
:010199002243
:10026E00AE071FEE600A7E027DC7DDFEDEFC80F06B
:01027E00225D
:1000970075080075097890000112025A30B10312F1
:1000A700024520B1107F1412026EAD82750E017BDE
:1000B700011201F0A330B20312024520B2107F14DF
:1000C70012026EAD82750E017B021201F0A330B3EE
:1000D7000312024520B30F7F1412026EAD82750E14
:0800E700017B031201F080FE11
:10000300BB010CE58229F582E5833AF583E02250B2
:1000130006E92582F8E622BBFE06E92582F8E222FC
:0D002300E58229F582E5833AF583E4932216
:10003000EF8DF0A4A8F0CF8CF0A428CE8DF0A42EE4
:02004000FE229E
:10004200BC000BBE0029EF8DF084FFADF022E4CCA2
:10005200F875F008EF2FFFEE33FEEC33FCEE9DEC6B
:10006200984005FCEE9DFE0FD5F0E9E4CEFD22EDB1
:10007200F8F5F0EE8420D21CFEADF075F008EF2FFB
:10008200FFED33FD4007985006D5F0F222C398FDEC
:050092000FD5F0EA2289
:00000001FF
