:1001E500EF1FAC0670011E4C600A7D027CEFDCFE41
:0401F500DDFC80ECC1
:0101F90022E3
:10010700E4F51620B1137F14FE1201E530B1FD7F2F
:10011700147E001201E575160120B0147F147E00CD
:100127001201E530B0FD7F147E001201E57516025D
:1001370020B2147F147E001201E530B2FD7F147ED9
:10014700001201E575160320B3147F147E00120117
:10015700E530B3FD7F147E001201E5751604AF1676
:010167002275
:100168001201CE1201078F13E513702305155315DD
:1001780003E5157002F512E515B40103751232E5B1
:1001880015B4020375124BE515B40303751264E543
:0B01980015FD7C007F0112009A80C85A
:03000B000201A34C
:1001A300C0E0C0F0C0D0758A9C758CFF0514E514BF
:1001B30075F0648485F014E514C395125004D2904D
:0B01C3008002C290D0D0D0F0D0E0321B
:0C01FA000A083F065B4F666D7D077F6FB3
:10009A00EF14B4080050549000AF75F003A4C58360
:1000AA0025F0C583730200C70200CB0200CF02000D
:1000BA00D30200D70200DF0200E70200EFD2A480D9
:1000CA000ED2A48012D2A48016D2A4801AC2A4D2BC
:1000DA00A3D2A28016C2A4D2A3C2A2800EC2A4C274
:1000EA00A3D2A28006C2A4C2A3C2A274082DF8E6B3
:0D00FA00F5807F017E001201E5E4F5802213
:1001CE005389F0438901758A9C758CFFC28DD28C40
:0701DE00D2A9D2AFC2B92281
:0300000002000EED
:0C000E00787FE4F6D8FD758116020055DD
:10001A00020168E493A3F8E493A34003F68001F293
:10002A0008DFF48029E493A3F85407240CC8C333E7
:10003A00C4540F4420C8834004F456800146F6DFB6
:10004A00E4800B01020408102040809001FAE47E4B
:10005A00019360BCA3FF543F30E509541FFEE493AB
:10006A00A360010ECF54C025E060A840B8E493A372
:10007A00FAE493A3F8E493A3C8C582C8CAC583CA9D
:10008A00F0A3C8C582C8CAC583CADFE9DEE780BE55
:0102060000F7
:00000001FF
