:030000000200C13A
:0C00C100787FE4F6D8FD7581110201087B
:0C01E6000A083F065B4F666D7D077F6FC7
:1001B4007C007F081201517FF47E011201CF7F067B
:0B01C4007D017C001201517F017E00D4
:1001CF00EF4E60120000007D0B7CBEDCFEDDFCEF0D
:0601DF001F70ED1E80EA16
:0101E50022F7
:04014D007C007F08AB
:10015100EF14B40800505490016675F003A4C583F0
:1001610025F0C5837302017E02018202018602012C
:100171008A02018E02019602019E0201A6D2A4808A
:100181000ED2A48012D2A48016D2A4801AC2A4D204
:10019100A3D2A28016C2A4D2A3C2A2800EC2A4C2BC
:1001A100A3D2A28006C2A4C2A3C2A274082DF8E6FB
:0301B100F58022B4
:1000030074FFFBFAEB1BAE0270011A4E60117D0206
:100013007C007F071201517D070F12015180E57F9C
:10002300F47E011201CF7D037C007F071201C87D9E
:100033000412014D7FF47E011201CF7D057C007F08
:10004300071201C87D0112014D7FF47E011201CF19
:100053007D067C007F071201C87D0812014D7FF4E5
:100063007E011201CF7D087C007F071201C87D0548
:100073001201B4E4FDFC7F071201C87D021201B432
:100083007F071201C47D091201B47D037C007F0741
:100093001201C87D061201B47D057C007F071201A1
:1000A300C87D031201B47D077C007F071201C8E4F9
:0E00B300FDFC7F081201517FF47E010201CF97
:1000CD00020003E493A3F8E493A34003F68001F246
:1000DD0008DFF48029E493A3F85407240CC8C33334
:1000ED00C4540F4420C8834004F456800146F6DF03
:1000FD00E4800B01020408102040809001E6E47EAC
:10010D00019360BCA3FF543F30E509541FFEE493F7
:10011D00A360010ECF54C025E060A840B8E493A3BE
:10012D00FAE493A3F8E493A3C8C582C8CAC583CAE9
:10013D00F0A3C8C582C8CAC583CADFE9DEE780BEA1
:0101F200000C
:00000001FF
